:03000000020A836E
:0C0A8300787FE4F6D8FD758115020ACAE0
:100B2200C0F9A4B0999282F880908883C6A1868E7B
:100B0F000608FFFFFFFFFFFF011000020E000001AC
:020B1F001100C3
:10080000E4F515F514F513F512D2AFC294D2937531
:100810008901758CFC758A67D2A9D28CE511B40167
:10082000FBE4F511E5152401F515E43514F514E4A0
:100830003513F513E43512F512E47B0AFAF9F8AF33
:1008400015AE14AD13AC1212096374222BF5827429
:100850000B3AF583E493F508E47B0AFAF9F8AF154F
:10086000AE14AD13AC12120963E47B0AFAF9F81264
:10087000096374222BF582740B3AF583E493F5092E
:10088000E47B64FAF9F8AF15AE14AD13AC1212099B
:1008900063E47B0AFAF9F812096374222BF5827477
:1008A0000B3AF583E493F50AE47BE87A03F9F8AFB1
:1008B00015AE14AD13AC12120963E47B0AFAF9F811
:1008C00012096374222BF582740B3AF583E493F5D5
:1008D0000BE47B107A27F9F8AF15AE14AD13AC1208
:1008E000120963E47B0AFAF9F812096374222BF502
:1008F00082740B3AF583E493F50C7BA07A86790138
:100900007800AF15AE14AD13AC12120963E47B0A84
:10091000FAF9F812096374222BF582740B3AF58305
:07092000E493F50D02081C31
:03000B000209F5F2
:1009F500C0E0C0D0758CFC758A67050FE50F7002E5
:100A0500050EC394E8E50E94034009750E00750FB5
:100A1500007511017580FFE51014601D1460271421
:100A2500603114603B1460452405704DC292C2913B
:100A3500C29005108508808040C292C291D290056F
:100A4500108509808033C292D291C2900510850A23
:100A5500808026C292D291D2900510850B80801994
:100A6500D292C291C2900510850C80800CD292C2A0
:0E0A750091D290751000850D80D0D0D0E03267
:100A8F00020800E493A3F8E493A34003F68001F275
:100A9F0008DFF48029E493A3F85407240CC8C33368
:100AAF00C4540F4420C8834004F456800146F6DF37
:100ABF00E4800B0102040810204080900B0FE47EAD
:100ACF00019360BCA3FF543F30E509541FFEE4932C
:100ADF00A360010ECF54C025E060A840B8E493A3F3
:100AEF00FAE493A3F8E493A3C8C582C8CAC583CA1E
:100AFF00F0A3C8C582C8CAC583CADFE9DEE780BED6
:010B210000D3
:1009270075F008758200EF2FFFEE33FECD33CDCC87
:1009370033CCC58233C5829BED9AEC99E58298400A
:100947000CF582EE9BFEED9AFDEC99FC0FD5F0D6E7
:10095700E4CEFBE4CDFAE4CCF9A88222B800C1B911
:100967000059BA002DEC8BF084CFCECDFCE5F0CB4F
:10097700F97818EF2FFFEE33FEED33FDEC33FCEB88
:1009870033FB10D703994004EB99FB0FD8E5E4F943
:10099700FA227818EF2FFFEE33FEED33FDEC33FC30
:1009A700C933C910D7059BE99A4007EC9BFCE99A24
:1009B700F90FD8E0E4C9FAE4CCFB2275F010EF2F69
:1009C700FFEE33FEED33FDCC33CCC833C810D70769
:1009D7009BEC9AE899400AED9BFDEC9AFCE899F8A4
:0E09E7000FD5F0DAE4CDFBE4CCFAE4C8F92237
:00000001FF
