:03000000020A7D74
:0C0A7D00787FE4F6D8FD758114020AC4ED
:100B0900C0F9A4B0999282F880908883C6A1868E94
:080B1900060FFFFFFFFFFFFFC5
:10080000E4F508F509F50AF50EF50DF50CF50BC242
:1008100094D293758901758CFC758A66D28C308D63
:10082000FDC28D758CFC758A66050AE50A700205A5
:1008300009C394E8E50994035003020942E4F50969
:10084000F50AE50E2401F50EE4350DF50DE4350C41
:10085000F50CE4350BF50BE47B0AFAF9F8AF0EAEB4
:100860000DAD0CAC0B1209EB74092BF582740B3A2D
:10087000F583E493F50FE47B0AFAF9F8AF0EAE0DB9
:10088000AD0CAC0B1209EBE47B0AFAF9F81209EB98
:1008900074092BF582740B3AF583E493F510E47B2D
:1008A00064FAF9F8AF0EAE0DAD0CAC0B1209EBE427
:1008B0007B0AFAF9F81209EB74092BF582740B3AEA
:1008C000F583E493F511E47BE87A03F9F8AF0EAE13
:1008D0000DAD0CAC0B1209EBE47B0AFAF9F8120926
:1008E000EB74092BF582740B3AF583E493F512E46B
:1008F0007B107A27F9F8AF0EAE0DAD0CAC0B1209D8
:10090000EBE47B0AFAF9F81209EB74092BF582740F
:100910000B3AF583E493F5137BA07A86790178008E
:10092000AF0EAE0DAD0CAC0B1209EBE47B0AFAF97D
:10093000F81209EB74092BF582740B3AF583E493F2
:10094000F514E50814602114602C1460371460421B
:1009500014604D2405600302081EC292C291C29029
:100960000508850F8002081EC292C291D290050828
:1009700085108002081EC292D291C290050885118E
:100980008002081EC292D291D29005088512800280
:10099000081ED292C291C290050885138002081EDB
:0F09A000D292C291D290E4F50885148002081E0D
:100A8900020800E493A3F8E493A34003F68001F27B
:100A990008DFF48029E493A3F85407240CC8C3336E
:100AA900C4540F4420C8834004F456800146F6DF3D
:100AB900E4800B0102040810204080900B19E47EA9
:100AC900019360BCA3FF543F30E509541FFEE49332
:100AD900A360010ECF54C025E060A840B8E493A3F9
:100AE900FAE493A3F8E493A3C8C582C8CAC583CA24
:100AF900F0A3C8C582C8CAC583CADFE9DEE780BEDC
:010B210000D3
:1009AF0075F008758200EF2FFFEE33FECD33CDCCFF
:1009BF0033CCC58233C5829BED9AEC99E582984082
:1009CF000CF582EE9BFEED9AFDEC99FC0FD5F0D65F
:1009DF00E4CEFBE4CDFAE4CCF9A88222B800C1B989
:1009EF000059BA002DEC8BF084CFCECDFCE5F0CBC7
:1009FF00F97818EF2FFFEE33FEED33FDEC33FCEB00
:100A0F0033FB10D703994004EB99FB0FD8E5E4F9BA
:100A1F00FA227818EF2FFFEE33FEED33FDEC33FCA7
:100A2F00C933C910D7059BE99A4007EC9BFCE99A9B
:100A3F00F90FD8E0E4C9FAE4CCFB2275F010EF2FE0
:100A4F00FFEE33FEED33FDCC33CCC833C810D707E0
:100A5F009BEC9AE899400AED9BFDEC9AFCE899F81B
:0E0A6F000FD5F0DAE4CDFBE4CCFAE4C8F922AE
:00000001FF
