:03000000020A945D
:0C0A9400787FE4F6D8FD758128020ADBAB
:100E7500D2B6D2B700000000C2B600000000C2B76B
:010E8500224A
:100E6000C2B7C2B600000000D2B700000000D2B680
:050E700000000000225B
:100D63007E80EE601B5F7004C2B68002D2B60000C4
:100D73000000D2B700000000C2B7EEC313FE80E24A
:100D8300D2B600000000D2B7A2B692000000000065
:050D9300C2B7A200B38D
:010D98002238
:100D9900D2B67E80EE601D00000000D2B720B605F5
:100DA900F452078003EE420700000000C2B7EEC309
:100DB90013FE80E0D2B600000000D2B700000000A8
:020DC900C2B7AF
:010DCB002205
:100DCC00D2B67E80EE601D00000000D2B720B605C2
:100DDC00F452078003EE420700000000C2B7EEC3D6
:100DEC0013FE80E0C2B600000000D2B70000000085
:020DFC00C2B77C
:010DFE0022D2
:100E8600313233263435362537383928301B0D278D
:100CD6009010010101010101010101010101010160
:100CE6000101900001010101010101010101010160
:100CF600010101010108001009FFFFFFFFFFFFFFCF
:090D0600FFFFFFFFFFFFFFFFFFED
:100B9900E4F519E4F51AE51925E025E02410251AEC
:100BA900F8E2FFE51925E025E02400251AF8E2FE20
:100BB9006F603DEE6020E51925E025E02486F58289
:100BC900E4340EF583E582251AF582E43583F5834D
:100BD900E493FF120DFFE51925E025E02410251AFD
:100BE900F8E2FFE51925E025E02400251AF8EFF2DF
:100BF900051AE51AC39404409D0519E519C394041F
:020C0900409118
:010C0B0022C6
:10093000E50825E025E02409F8E625E0FFA2A4E487
:10094000334FFFE50825E025E02409F8A607E50870
:1009500025E025E0240AF8E625E0FFA2A5E4334FD0
:10096000FFE50825E025E0240AF8A607E50825E0CC
:1009700025E0240BF8E625E0FFA2A6E4334FFFE5CF
:100980000825E025E0240BF8A607E50825E025E08A
:10099000240CF8E625E0FFA2A7E4334FFFE5082585
:1009A000E025E0240CF8A607E4FFE50825E025E0B3
:1009B00024092FF8E6540FFE700EE50825E025E027
:1009C00024102FF8E4F28010BE0F0DE50825E02575
:1009D000E024102FF87401F20FBF04CE050853086D
:1009E00003E50814600F14601114601324037013DE
:1009F000D2A0C2A322D2A3C2A222D2A2C2A122D238
:030A0000A1C2A0F0
:010A030022D0
:100A04000202020406090D12192129323C485563D9
:100A140077879199A0A5AAAEB4B9BEC3C8CDD2D7E1
:100A2400E1E6EBF0F5FAFF04090E13181D22272C5A
:100A340031363B40454A4F54595E63686D72777C4A
:100A44007C7C7C7C7C7C7C7C7C7C7C7C7C7C7C7CE2
:100A540000102030405060708090A0B0C0D0E0F012
:100A6400FFF0E0D0C0B0A090807060504030201003
:100A740000081018202830384048505860687078B2
:100A840080889098A0A8B0B8C0C8D0D8E0E8F0F8A2
:100D0F000125000127000126010128010121000111
:020D1F002200B0
:100E4700D2AF7F017E00120B2075230A7524047F21
:090E570001120C0C120B9980FB36
:100DFF00EF64267026E521700A75210175230A75A7
:100E0F00245422E521B4010A75210275230A7524A1
:0B0E1F007422E4F52175230A752404F9
:010E2A0022A5
:100E2B008F1D120E757F90120D634002800A7F405A
:0C0E3B00120D63AF1D120D63120E602239
:100C0C00EF75F051A4AEF0FBAA06E4F9F87F557E1F
:100C1C00D57D437C0C12088B8F1C8E1B8D1A8C1966
:100C2C00C3E4951CF51CE4951BF51B7401951AF592
:100C3C001AE49519F519E51C2421F51CE4351BF56E
:100C4C001BE4351AF51AE43519F519AF1CAE1BADBA
:100C5C001AFC780812091D8F26851C2853890F430E
:0E0C6C00891085268D85288BD2ABD2BBD28E07
:010C7A002257
:100B2000751C00751B10751A0E751900E4FCFDABE1
:100B30001CAA1BA91AA819120800E47BE87A03F979
:100B4000F812088B8F1C8E1B8D1A8C19C3E4951C10
:100B5000F51CE4951BF51B7401951AF51AE495191B
:100B6000F519E51C241CF51CE4351BF51BE4351AAE
:100B7000F51AE43519F519AF1CAE1BAD1AFC78084F
:100B800012091D8F25851C275389F043890185256E
:080B90008C85278AD2A9D28CC2
:010B9800223A
:03000B00020D22C1
:100D2200C0E0C0F0C083C082C0D075D000C000C097
:100D320001C002C003C004C005C006C00785258CDF
:100D420085278A120930D007D006D005D004D003F7
:100D5200D002D001D000D0D0D082D083D0F0D0E069
:010D6200325E
:03001B00020C7B59
:100C7B00C0E0C0F0C083C082C0D075D000C000C03F
:0D0C8B0001C002C003C004C005C006C007C0
:100C980085268D85288BE5242522F582E43523F5E4
:100CA80083E493FF120E2B0522E522C394514003DF
:030CB800752200A2
:100CBB00D007D006D005D004D003D002D001D0008D
:0B0CCB00D0D0D082D083D0F0D0E03237
:100AA000020E47E493A3F8E493A34003F68001F217
:100AB00008DFF48029E493A3F85407240CC8C33357
:100AC000C4540F4420C8834004F456800146F6DF26
:100AD000E4800B0102040810204080900CD6E47ED4
:100AE000019360BCA3FF543F30E509541FFEE4931B
:100AF000A360010ECF54C025E060A840B8E493A3E2
:100B0000FAE493A3F8E493A3C8C582C8CAC583CA0C
:100B1000F0A3C8C582C8CAC583CADFE9DEE780BEC4
:010D210000D1
:10080000E88FF0A4CC8BF0A42CFCE98EF0A42CFC97
:100810008AF0EDA42CFCEA8EF0A4CDA8F08BF0A415
:100820002DCC3825F0FDE98FF0A42CCD35F0FCEB74
:100830008EF0A4FEA9F0EB8FF0A4CFC5F02ECD3939
:0F084000FEE43CFCEAA42DCE35F0FDE43CFC22A6
:10084F0075F008758200EF2FFFEE33FECD33CDCC60
:10085F0033CCC58233C5829BED9AEC99E5829840E3
:10086F000CF582EE9BFEED9AFDEC99FC0FD5F0D6C0
:10087F00E4CEFBE4CDFAE4CCF9A88222B800C1B9EA
:10088F000059BA002DEC8BF084CFCECDFCE5F0CB28
:10089F00F97818EF2FFFEE33FEED33FDEC33FCEB61
:1008AF0033FB10D703994004EB99FB0FD8E5E4F91C
:1008BF00FA227818EF2FFFEE33FEED33FDEC33FC09
:1008CF00C933C910D7059BE99A4007EC9BFCE99AFD
:1008DF00F90FD8E0E4C9FAE4CCFB2275F010EF2F42
:1008EF00FFEE33FEED33FDCC33CCC833C810D70742
:1008FF009BEC9AE899400AED9BFDEC9AFCE899F87D
:0E090F000FD5F0DAE4CDFBE4CCFAE4C8F9220F
:10091D00E8600FECC313FCED13FDEE13FEEF13FFB8
:03092D00D8F122DC
:00000001FF
